{
  "abi": [
    {
      "inputs": [
        {
          "internalType": "address",
          "name": "_owner",
          "type": "address"
        },
        {
          "internalType": "address",
          "name": "_zona",
          "type": "address"
        },
        {
          "internalType": "uint256",
          "name": "_startTime",
          "type": "uint256"
        }
      ],
      "stateMutability": "nonpayable",
      "type": "constructor"
    },
    {
      "anonymous": false,
      "inputs": [
        {
          "indexed": true,
          "internalType": "address",
          "name": "user",
          "type": "address"
        },
        {
          "indexed": true,
          "internalType": "address",
          "name": "newOwner",
          "type": "address"
        }
      ],
      "name": "OwnershipTransferred",
      "type": "event"
    },
    {
      "inputs": [
        {
          "internalType": "address",
          "name": "",
          "type": "address"
        }
      ],
      "name": "claimed",
      "outputs": [
        {
          "internalType": "bool",
          "name": "",
          "type": "bool"
        }
      ],
      "stateMutability": "view",
      "type": "function"
    },
    {
      "inputs": [],
      "name": "endTime",
      "outputs": [
        {
          "internalType": "uint256",
          "name": "",
          "type": "uint256"
        }
      ],
      "stateMutability": "view",
      "type": "function"
    },
    {
      "inputs": [],
      "name": "mint",
      "outputs": [],
      "stateMutability": "nonpayable",
      "type": "function"
    },
    {
      "inputs": [],
      "name": "owner",
      "outputs": [
        {
          "internalType": "address",
          "name": "",
          "type": "address"
        }
      ],
      "stateMutability": "view",
      "type": "function"
    },
    {
      "inputs": [],
      "name": "startTime",
      "outputs": [
        {
          "internalType": "uint256",
          "name": "",
          "type": "uint256"
        }
      ],
      "stateMutability": "view",
      "type": "function"
    },
    {
      "inputs": [
        {
          "internalType": "address",
          "name": "newOwner",
          "type": "address"
        }
      ],
      "name": "transferOwnership",
      "outputs": [],
      "stateMutability": "nonpayable",
      "type": "function"
    },
    {
      "inputs": [],
      "name": "zona",
      "outputs": [
        {
          "internalType": "address",
          "name": "",
          "type": "address"
        }
      ],
      "stateMutability": "view",
      "type": "function"
    }
  ],
  "bytecode": {
    "object": "0x60e060405234801561001057600080fd5b506040516105c43803806105c483398101604081905261002f916100be565b600080546001600160a01b0319166001600160a01b03851690811782556040518592907f8be0079c531659141344cd1fd0a4f28419497f9722a3daafe3b4186f6b6457e0908290a3506001600160a01b03821660805260a081905261009681611c206100fa565b60c05250610120915050565b80516001600160a01b03811681146100b957600080fd5b919050565b6000806000606084860312156100d357600080fd5b6100dc846100a2565b92506100ea602085016100a2565b9150604084015190509250925092565b6000821982111561011b57634e487b7160e01b600052601160045260246000fd5b500190565b60805160a05160c05161046261016260003960008181609101526101f101526000818161011701526101a201526000818160cb01526102c501526104626000f3fe608060405234801561001057600080fd5b506004361061007d5760003560e01c806378e979251161005b57806378e97925146101125780638da5cb5b14610139578063c884ef8314610159578063f2fde38b1461018c57600080fd5b80631249c58b146100825780633197cbb61461008c57806344b170fe146100c6575b600080fd5b61008a61019f565b005b6100b37f000000000000000000000000000000000000000000000000000000000000000081565b6040519081526020015b60405180910390f35b6100ed7f000000000000000000000000000000000000000000000000000000000000000081565b60405173ffffffffffffffffffffffffffffffffffffffff90911681526020016100bd565b6100b37f000000000000000000000000000000000000000000000000000000000000000081565b6000546100ed9073ffffffffffffffffffffffffffffffffffffffff1681565b61017c610167366004610418565b60016020526000908152604090205460ff1681565b60405190151581526020016100bd565b61008a61019a366004610418565b610323565b427f00000000000000000000000000000000000000000000000000000000000000001115806101e5575060005473ffffffffffffffffffffffffffffffffffffffff1633145b6101ee57600080fd5b427f0000000000000000000000000000000000000000000000000000000000000000101561021b57600080fd5b3360009081526001602052604090205460ff161561023857600080fd5b3360008181526001602081905260409182902080547fffffffffffffffffffffffffffffffffffffffffffffffffffffffffffffff00168217905590517f156e29f60000000000000000000000000000000000000000000000000000000081526004808201939093526024810192909252604482015273ffffffffffffffffffffffffffffffffffffffff7f0000000000000000000000000000000000000000000000000000000000000000169063156e29f690606401600060405180830381600087803b15801561030957600080fd5b505af115801561031d573d6000803e3d6000fd5b50505050565b60005473ffffffffffffffffffffffffffffffffffffffff1633146103a8576040517f08c379a000000000000000000000000000000000000000000000000000000000815260206004820152600c60248201527f554e415554484f52495a45440000000000000000000000000000000000000000604482015260640160405180910390fd5b600080547fffffffffffffffffffffffff00000000000000000000000000000000000000001673ffffffffffffffffffffffffffffffffffffffff83169081178255604051909133917f8be0079c531659141344cd1fd0a4f28419497f9722a3daafe3b4186f6b6457e09190a350565b60006020828403121561042a57600080fd5b813573ffffffffffffffffffffffffffffffffffffffff8116811461044e57600080fd5b939250505056fea164736f6c634300080f000a",
    "linkReferences": {}
  },
  "methodIdentifiers": {
    "claimed(address)": "c884ef83",
    "endTime()": "3197cbb6",
    "mint()": "1249c58b",
    "owner()": "8da5cb5b",
    "startTime()": "78e97925",
    "transferOwnership(address)": "f2fde38b",
    "zona()": "44b170fe"
  },
  "id": 17
}