{
  "abi": [
    {
      "inputs": [
        {
          "internalType": "address",
          "name": "_owner",
          "type": "address"
        },
        {
          "internalType": "address",
          "name": "_zona",
          "type": "address"
        },
        {
          "internalType": "uint256",
          "name": "_startTime",
          "type": "uint256"
        }
      ],
      "stateMutability": "nonpayable",
      "type": "constructor"
    },
    {
      "anonymous": false,
      "inputs": [
        {
          "indexed": true,
          "internalType": "address",
          "name": "user",
          "type": "address"
        },
        {
          "indexed": true,
          "internalType": "address",
          "name": "newOwner",
          "type": "address"
        }
      ],
      "name": "OwnershipTransferred",
      "type": "event"
    },
    {
      "inputs": [
        {
          "internalType": "uint256",
          "name": "amount",
          "type": "uint256"
        }
      ],
      "name": "mint",
      "outputs": [],
      "stateMutability": "payable",
      "type": "function"
    },
    {
      "inputs": [],
      "name": "owner",
      "outputs": [
        {
          "internalType": "address",
          "name": "",
          "type": "address"
        }
      ],
      "stateMutability": "view",
      "type": "function"
    },
    {
      "inputs": [],
      "name": "reserved",
      "outputs": [],
      "stateMutability": "nonpayable",
      "type": "function"
    },
    {
      "inputs": [],
      "name": "sold",
      "outputs": [
        {
          "internalType": "uint256",
          "name": "",
          "type": "uint256"
        }
      ],
      "stateMutability": "view",
      "type": "function"
    },
    {
      "inputs": [],
      "name": "startTime",
      "outputs": [
        {
          "internalType": "uint256",
          "name": "",
          "type": "uint256"
        }
      ],
      "stateMutability": "view",
      "type": "function"
    },
    {
      "inputs": [
        {
          "internalType": "address",
          "name": "newOwner",
          "type": "address"
        }
      ],
      "name": "transferOwnership",
      "outputs": [],
      "stateMutability": "nonpayable",
      "type": "function"
    },
    {
      "inputs": [],
      "name": "withdraw",
      "outputs": [],
      "stateMutability": "nonpayable",
      "type": "function"
    },
    {
      "inputs": [],
      "name": "zona",
      "outputs": [
        {
          "internalType": "address",
          "name": "",
          "type": "address"
        }
      ],
      "stateMutability": "view",
      "type": "function"
    }
  ],
  "bytecode": {
    "object": "0x608060405234801561001057600080fd5b5060405161079738038061079783398101604081905261002f916100be565b600080546001600160a01b0319166001600160a01b03851690811782556040518592907f8be0079c531659141344cd1fd0a4f28419497f9722a3daafe3b4186f6b6457e0908290a350600180546001600160a01b0319166001600160a01b039390931692909217909155600255506100fa565b80516001600160a01b03811681146100b957600080fd5b919050565b6000806000606084860312156100d357600080fd5b6100dc846100a2565b92506100ea602085016100a2565b9150604084015190509250925092565b61068e806101096000396000f3fe60806040526004361061007b5760003560e01c80638da5cb5b1161004e5780638da5cb5b14610128578063a0712d6814610155578063f2fde38b14610168578063fe60d12c1461018857600080fd5b806302c7e7af146100805780633ccfd60b146100a957806344b170fe146100c057806378e9792514610112575b600080fd5b34801561008c57600080fd5b5061009660035481565b6040519081526020015b60405180910390f35b3480156100b557600080fd5b506100be61019d565b005b3480156100cc57600080fd5b506001546100ed9073ffffffffffffffffffffffffffffffffffffffff1681565b60405173ffffffffffffffffffffffffffffffffffffffff90911681526020016100a0565b34801561011e57600080fd5b5061009660025481565b34801561013457600080fd5b506000546100ed9073ffffffffffffffffffffffffffffffffffffffff1681565b6100be6101633660046105a7565b61026d565b34801561017457600080fd5b506100be6101833660046105c0565b610360565b34801561019457600080fd5b506100be610451565b60005473ffffffffffffffffffffffffffffffffffffffff163314610223576040517f08c379a000000000000000000000000000000000000000000000000000000000815260206004820152600c60248201527f554e415554484f52495a4544000000000000000000000000000000000000000060448201526064015b60405180910390fd5b6000805460405173ffffffffffffffffffffffffffffffffffffffff909116914780156108fc02929091818181858888f1935050505015801561026a573d6000803e3d6000fd5b50565b42600254111561027c57600080fd5b61028d81666f8e2235f2800061062c565b34101561029957600080fd5b6103e8816003546102aa9190610669565b11156102b557600080fd5b80600360008282546102c79190610669565b9091555050600180546040517f156e29f600000000000000000000000000000000000000000000000000000000815233600482015260248101929092526044820183905273ffffffffffffffffffffffffffffffffffffffff169063156e29f690606401600060405180830381600087803b15801561034557600080fd5b505af1158015610359573d6000803e3d6000fd5b5050505050565b60005473ffffffffffffffffffffffffffffffffffffffff1633146103e1576040517f08c379a000000000000000000000000000000000000000000000000000000000815260206004820152600c60248201527f554e415554484f52495a45440000000000000000000000000000000000000000604482015260640161021a565b600080547fffffffffffffffffffffffff00000000000000000000000000000000000000001673ffffffffffffffffffffffffffffffffffffffff83169081178255604051909133917f8be0079c531659141344cd1fd0a4f28419497f9722a3daafe3b4186f6b6457e09190a350565b60005473ffffffffffffffffffffffffffffffffffffffff1633146104d2576040517f08c379a000000000000000000000000000000000000000000000000000000000815260206004820152600c60248201527f554e415554484f52495a45440000000000000000000000000000000000000000604482015260640161021a565b60045460ff16156104e257600080fd5b600480547fffffffffffffffffffffffffffffffffffffffffffffffffffffffffffffff00166001908117825580546000546040517f156e29f600000000000000000000000000000000000000000000000000000000815273ffffffffffffffffffffffffffffffffffffffff91821694810194909452602484019290925260186044840152169063156e29f690606401600060405180830381600087803b15801561058d57600080fd5b505af11580156105a1573d6000803e3d6000fd5b50505050565b6000602082840312156105b957600080fd5b5035919050565b6000602082840312156105d257600080fd5b813573ffffffffffffffffffffffffffffffffffffffff811681146105f657600080fd5b9392505050565b7f4e487b7100000000000000000000000000000000000000000000000000000000600052601160045260246000fd5b6000817fffffffffffffffffffffffffffffffffffffffffffffffffffffffffffffffff0483118215151615610664576106646105fd565b500290565b6000821982111561067c5761067c6105fd565b50019056fea164736f6c634300080f000a",
    "linkReferences": {}
  },
  "methodIdentifiers": {
    "mint(uint256)": "a0712d68",
    "owner()": "8da5cb5b",
    "reserved()": "fe60d12c",
    "sold()": "02c7e7af",
    "startTime()": "78e97925",
    "transferOwnership(address)": "f2fde38b",
    "withdraw()": "3ccfd60b",
    "zona()": "44b170fe"
  },
  "id": 31
}