{
  "abi": [
    {
      "inputs": [
        {
          "internalType": "bytes",
          "name": "data",
          "type": "bytes"
        }
      ],
      "name": "encode",
      "outputs": [
        {
          "internalType": "string",
          "name": "",
          "type": "string"
        }
      ],
      "stateMutability": "pure",
      "type": "function"
    }
  ],
  "bytecode": {
    "object": "0x61043361003a600b82828239805160001a60731461002d57634e487b7160e01b600052600060045260246000fd5b30600052607381538281f3fe73000000000000000000000000000000000000000030146080604052600436106100355760003560e01c806312496a1b1461003a575b600080fd5b61004d6100483660046101e5565b610063565b60405161005a91906102b4565b60405180910390f35b6060815160000361008257505060408051602081019091526000815290565b60006040518060600160405280604081526020016103e760409139905060006003845160026100b19190610356565b6100bb919061036e565b6100c69060046103a9565b67ffffffffffffffff8111156100de576100de6101b6565b6040519080825280601f01601f191660200182016040528015610108576020820181803683370190505b509050600182016020820185865187015b80821015610174576003820191508151603f8160121c168501518453600184019350603f81600c1c168501518453600184019350603f8160061c168501518453600184019350603f8116850151845350600183019250610119565b505060038651066001811461019057600281146101a3576101ab565b603d6001830353603d60028303536101ab565b603d60018303535b509195945050505050565b7f4e487b7100000000000000000000000000000000000000000000000000000000600052604160045260246000fd5b6000602082840312156101f757600080fd5b813567ffffffffffffffff8082111561020f57600080fd5b818401915084601f83011261022357600080fd5b813581811115610235576102356101b6565b604051601f82017fffffffffffffffffffffffffffffffffffffffffffffffffffffffffffffffe0908116603f0116810190838211818310171561027b5761027b6101b6565b8160405282815287602084870101111561029457600080fd5b826020860160208301376000928101602001929092525095945050505050565b600060208083528351808285015260005b818110156102e1578581018301518582016040015282016102c5565b818111156102f3576000604083870101525b50601f017fffffffffffffffffffffffffffffffffffffffffffffffffffffffffffffffe016929092016040019392505050565b7f4e487b7100000000000000000000000000000000000000000000000000000000600052601160045260246000fd5b6000821982111561036957610369610327565b500190565b6000826103a4577f4e487b7100000000000000000000000000000000000000000000000000000000600052601260045260246000fd5b500490565b6000817fffffffffffffffffffffffffffffffffffffffffffffffffffffffffffffffff04831182151516156103e1576103e1610327565b50029056fe4142434445464748494a4b4c4d4e4f505152535455565758595a6162636465666768696a6b6c6d6e6f707172737475767778797a303132333435363738392b2fa164736f6c634300080f000a",
    "linkReferences": {}
  },
  "methodIdentifiers": {
    "encode(bytes)": "12496a1b"
  },
  "id": 33
}