{
  "abi": [
    {
      "inputs": [
        {
          "internalType": "address",
          "name": "_owner",
          "type": "address"
        },
        {
          "internalType": "address",
          "name": "_zona",
          "type": "address"
        },
        {
          "internalType": "uint256",
          "name": "_startTime",
          "type": "uint256"
        }
      ],
      "stateMutability": "nonpayable",
      "type": "constructor"
    },
    {
      "inputs": [],
      "name": "burned",
      "outputs": [
        {
          "internalType": "uint256",
          "name": "",
          "type": "uint256"
        }
      ],
      "stateMutability": "view",
      "type": "function"
    },
    {
      "inputs": [
        {
          "internalType": "uint256",
          "name": "amount",
          "type": "uint256"
        }
      ],
      "name": "mint",
      "outputs": [],
      "stateMutability": "nonpayable",
      "type": "function"
    }
  ],
  "bytecode": {
    "object": "0x60c0604052600060015534801561001557600080fd5b5060405161046f38038061046f83398101604081905261003491610079565b600080546001600160a01b0319166001600160a01b03948516179055911660805260a0526100b5565b80516001600160a01b038116811461007457600080fd5b919050565b60008060006060848603121561008e57600080fd5b6100978461005d565b92506100a56020850161005d565b9150604084015190509250925092565b60805160a0516103896100e66000396000606e01526000818160f0015281816101e9015261029501526103896000f3fe608060405234801561001057600080fd5b50600436106100365760003560e01c806373f425611461003b578063a0712d6814610056575b600080fd5b61004460015481565b60405190815260200160405180910390f35b61006961006436600461030b565b61006b565b005b427f00000000000000000000000000000000000000000000000000000000000000001115806100b1575060005473ffffffffffffffffffffffffffffffffffffffff1633145b6100ba57600080fd5b6040517efdd58e0000000000000000000000000000000000000000000000000000000081523360048201526001602482015281907f000000000000000000000000000000000000000000000000000000000000000073ffffffffffffffffffffffffffffffffffffffff169062fdd58e90604401602060405180830381865afa15801561014b573d6000803e3d6000fd5b505050506040513d601f19601f8201168201806040525081019061016f9190610324565b101561017a57600080fd5b6102008160015461018b919061033d565b111561019657600080fd5b80600160008282546101a8919061033d565b90915550506040517ff5298aca00000000000000000000000000000000000000000000000000000000815233600482015260016024820152604481018290527f000000000000000000000000000000000000000000000000000000000000000073ffffffffffffffffffffffffffffffffffffffff169063f5298aca90606401600060405180830381600087803b15801561024257600080fd5b505af1158015610256573d6000803e3d6000fd5b50506040517f156e29f600000000000000000000000000000000000000000000000000000000815233600482015261029a6024820152604481018490527f000000000000000000000000000000000000000000000000000000000000000073ffffffffffffffffffffffffffffffffffffffff16925063156e29f69150606401600060405180830381600087803b1580156102f057600080fd5b505af1158015610304573d6000803e3d6000fd5b5050505050565b60006020828403121561031d57600080fd5b5035919050565b60006020828403121561033657600080fd5b5051919050565b60008219821115610377577f4e487b7100000000000000000000000000000000000000000000000000000000600052601160045260246000fd5b50019056fea164736f6c634300080f000a",
    "linkReferences": {}
  },
  "methodIdentifiers": {
    "burned()": "73f42561",
    "mint(uint256)": "a0712d68"
  },
  "id": 19
}