{
  "abi": [
    {
      "inputs": [
        {
          "internalType": "address",
          "name": "_owner",
          "type": "address"
        },
        {
          "internalType": "address",
          "name": "_zona",
          "type": "address"
        },
        {
          "internalType": "address",
          "name": "_oschun",
          "type": "address"
        },
        {
          "internalType": "uint256",
          "name": "_startTime",
          "type": "uint256"
        }
      ],
      "stateMutability": "nonpayable",
      "type": "constructor"
    },
    {
      "anonymous": false,
      "inputs": [
        {
          "indexed": true,
          "internalType": "address",
          "name": "user",
          "type": "address"
        },
        {
          "indexed": true,
          "internalType": "address",
          "name": "newOwner",
          "type": "address"
        }
      ],
      "name": "OwnershipTransferred",
      "type": "event"
    },
    {
      "inputs": [],
      "name": "endTime",
      "outputs": [
        {
          "internalType": "uint256",
          "name": "_endTime",
          "type": "uint256"
        }
      ],
      "stateMutability": "view",
      "type": "function"
    },
    {
      "inputs": [
        {
          "internalType": "uint256",
          "name": "amount",
          "type": "uint256"
        }
      ],
      "name": "mint",
      "outputs": [],
      "stateMutability": "payable",
      "type": "function"
    },
    {
      "inputs": [],
      "name": "oschun",
      "outputs": [
        {
          "internalType": "address",
          "name": "",
          "type": "address"
        }
      ],
      "stateMutability": "view",
      "type": "function"
    },
    {
      "inputs": [],
      "name": "owner",
      "outputs": [
        {
          "internalType": "address",
          "name": "",
          "type": "address"
        }
      ],
      "stateMutability": "view",
      "type": "function"
    },
    {
      "inputs": [],
      "name": "startTime",
      "outputs": [
        {
          "internalType": "uint256",
          "name": "",
          "type": "uint256"
        }
      ],
      "stateMutability": "view",
      "type": "function"
    },
    {
      "inputs": [
        {
          "internalType": "address",
          "name": "newOwner",
          "type": "address"
        }
      ],
      "name": "transferOwnership",
      "outputs": [],
      "stateMutability": "nonpayable",
      "type": "function"
    },
    {
      "inputs": [],
      "name": "withdraw",
      "outputs": [],
      "stateMutability": "nonpayable",
      "type": "function"
    },
    {
      "inputs": [],
      "name": "zona",
      "outputs": [
        {
          "internalType": "address",
          "name": "",
          "type": "address"
        }
      ],
      "stateMutability": "view",
      "type": "function"
    }
  ],
  "bytecode": {
    "object": "0x60e060405234801561001057600080fd5b5060405161081838038061081883398101604081905261002f916100b0565b600080546001600160a01b0319166001600160a01b03861690811782556040518692907f8be0079c531659141344cd1fd0a4f28419497f9722a3daafe3b4186f6b6457e0908290a3506001600160a01b03928316608052911660a05260c052506100fb565b80516001600160a01b03811681146100ab57600080fd5b919050565b600080600080608085870312156100c657600080fd5b6100cf85610094565b93506100dd60208601610094565b92506100eb60408601610094565b6060959095015193969295505050565b60805160a05160c0516106d36101456000396000818161012a015261034901526000818161019e015281816101e4015261039901526000818160d1015261048d01526106d36000f3fe60806040526004361061007b5760003560e01c80638da5cb5b1161004e5780638da5cb5b1461014c578063a0712d6814610179578063b798172a1461018c578063f2fde38b146101c057600080fd5b80633197cbb6146100805780633ccfd60b146100a857806344b170fe146100bf57806378e9792514610118575b600080fd5b34801561008c57600080fd5b506100956101e0565b6040519081526020015b60405180910390f35b3480156100b457600080fd5b506100bd610276565b005b3480156100cb57600080fd5b506100f37f000000000000000000000000000000000000000000000000000000000000000081565b60405173ffffffffffffffffffffffffffffffffffffffff909116815260200161009f565b34801561012457600080fd5b506100957f000000000000000000000000000000000000000000000000000000000000000081565b34801561015857600080fd5b506000546100f39073ffffffffffffffffffffffffffffffffffffffff1681565b6100bd6101873660046105f3565b610346565b34801561019857600080fd5b506100f37f000000000000000000000000000000000000000000000000000000000000000081565b3480156101cc57600080fd5b506100bd6101db36600461060c565b610502565b60007f000000000000000000000000000000000000000000000000000000000000000073ffffffffffffffffffffffffffffffffffffffff16633197cbb66040518163ffffffff1660e01b8152600401602060405180830381865afa15801561024d573d6000803e3d6000fd5b505050506040513d601f19601f820116820180604052508101906102719190610649565b905090565b60005473ffffffffffffffffffffffffffffffffffffffff1633146102fc576040517f08c379a000000000000000000000000000000000000000000000000000000000815260206004820152600c60248201527f554e415554484f52495a4544000000000000000000000000000000000000000060448201526064015b60405180910390fd5b6000805460405173ffffffffffffffffffffffffffffffffffffffff909116914780156108fc02929091818181858888f19350505050158015610343573d6000803e3d6000fd5b50565b427f000000000000000000000000000000000000000000000000000000000000000011158061038c575060005473ffffffffffffffffffffffffffffffffffffffff1633145b61039557600080fd5b60007f000000000000000000000000000000000000000000000000000000000000000073ffffffffffffffffffffffffffffffffffffffff16633197cbb66040518163ffffffff1660e01b8152600401602060405180830381865afa158015610402573d6000803e3d6000fd5b505050506040513d601f19601f820116820180604052508101906104269190610649565b905042811161043457600080fd5b6104458266397b9fd0774000610662565b34101561045157600080fd5b6040517f156e29f600000000000000000000000000000000000000000000000000000000815233600482015260026024820152604481018390527f000000000000000000000000000000000000000000000000000000000000000073ffffffffffffffffffffffffffffffffffffffff169063156e29f690606401600060405180830381600087803b1580156104e657600080fd5b505af11580156104fa573d6000803e3d6000fd5b505050505050565b60005473ffffffffffffffffffffffffffffffffffffffff163314610583576040517f08c379a000000000000000000000000000000000000000000000000000000000815260206004820152600c60248201527f554e415554484f52495a4544000000000000000000000000000000000000000060448201526064016102f3565b600080547fffffffffffffffffffffffff00000000000000000000000000000000000000001673ffffffffffffffffffffffffffffffffffffffff83169081178255604051909133917f8be0079c531659141344cd1fd0a4f28419497f9722a3daafe3b4186f6b6457e09190a350565b60006020828403121561060557600080fd5b5035919050565b60006020828403121561061e57600080fd5b813573ffffffffffffffffffffffffffffffffffffffff8116811461064257600080fd5b9392505050565b60006020828403121561065b57600080fd5b5051919050565b6000817fffffffffffffffffffffffffffffffffffffffffffffffffffffffffffffffff04831182151516156106c1577f4e487b7100000000000000000000000000000000000000000000000000000000600052601160045260246000fd5b50029056fea164736f6c634300080f000a",
    "linkReferences": {}
  },
  "methodIdentifiers": {
    "endTime()": "3197cbb6",
    "mint(uint256)": "a0712d68",
    "oschun()": "b798172a",
    "owner()": "8da5cb5b",
    "startTime()": "78e97925",
    "transferOwnership(address)": "f2fde38b",
    "withdraw()": "3ccfd60b",
    "zona()": "44b170fe"
  },
  "id": 32
}