{
  "abi": [
    {
      "inputs": [
        {
          "internalType": "address",
          "name": "_owner",
          "type": "address"
        },
        {
          "internalType": "address",
          "name": "_zona",
          "type": "address"
        },
        {
          "internalType": "uint256",
          "name": "_startTime",
          "type": "uint256"
        }
      ],
      "stateMutability": "nonpayable",
      "type": "constructor"
    },
    {
      "anonymous": false,
      "inputs": [
        {
          "indexed": false,
          "internalType": "address",
          "name": "_from",
          "type": "address"
        },
        {
          "indexed": false,
          "internalType": "uint256",
          "name": "_value",
          "type": "uint256"
        }
      ],
      "name": "BidPlaced",
      "type": "event"
    },
    {
      "anonymous": false,
      "inputs": [
        {
          "indexed": false,
          "internalType": "address",
          "name": "_to",
          "type": "address"
        },
        {
          "indexed": false,
          "internalType": "uint256",
          "name": "_value",
          "type": "uint256"
        }
      ],
      "name": "FailedRefund",
      "type": "event"
    },
    {
      "anonymous": false,
      "inputs": [
        {
          "indexed": true,
          "internalType": "address",
          "name": "user",
          "type": "address"
        },
        {
          "indexed": true,
          "internalType": "address",
          "name": "newOwner",
          "type": "address"
        }
      ],
      "name": "OwnershipTransferred",
      "type": "event"
    },
    {
      "inputs": [],
      "name": "bid",
      "outputs": [],
      "stateMutability": "payable",
      "type": "function"
    },
    {
      "inputs": [
        {
          "internalType": "address",
          "name": "",
          "type": "address"
        }
      ],
      "name": "bidder",
      "outputs": [
        {
          "internalType": "bool",
          "name": "",
          "type": "bool"
        }
      ],
      "stateMutability": "view",
      "type": "function"
    },
    {
      "inputs": [],
      "name": "endTime",
      "outputs": [
        {
          "internalType": "uint256",
          "name": "",
          "type": "uint256"
        }
      ],
      "stateMutability": "view",
      "type": "function"
    },
    {
      "inputs": [],
      "name": "initalize",
      "outputs": [],
      "stateMutability": "nonpayable",
      "type": "function"
    },
    {
      "inputs": [],
      "name": "initalized",
      "outputs": [
        {
          "internalType": "bool",
          "name": "",
          "type": "bool"
        }
      ],
      "stateMutability": "view",
      "type": "function"
    },
    {
      "inputs": [],
      "name": "nextPrice",
      "outputs": [
        {
          "internalType": "uint256",
          "name": "",
          "type": "uint256"
        }
      ],
      "stateMutability": "view",
      "type": "function"
    },
    {
      "inputs": [
        {
          "internalType": "address",
          "name": "",
          "type": "address"
        },
        {
          "internalType": "address",
          "name": "",
          "type": "address"
        },
        {
          "internalType": "uint256[]",
          "name": "",
          "type": "uint256[]"
        },
        {
          "internalType": "uint256[]",
          "name": "",
          "type": "uint256[]"
        },
        {
          "internalType": "bytes",
          "name": "",
          "type": "bytes"
        }
      ],
      "name": "onERC1155BatchReceived",
      "outputs": [
        {
          "internalType": "bytes4",
          "name": "",
          "type": "bytes4"
        }
      ],
      "stateMutability": "nonpayable",
      "type": "function"
    },
    {
      "inputs": [
        {
          "internalType": "address",
          "name": "",
          "type": "address"
        },
        {
          "internalType": "address",
          "name": "",
          "type": "address"
        },
        {
          "internalType": "uint256",
          "name": "",
          "type": "uint256"
        },
        {
          "internalType": "uint256",
          "name": "",
          "type": "uint256"
        },
        {
          "internalType": "bytes",
          "name": "",
          "type": "bytes"
        }
      ],
      "name": "onERC1155Received",
      "outputs": [
        {
          "internalType": "bytes4",
          "name": "",
          "type": "bytes4"
        }
      ],
      "stateMutability": "nonpayable",
      "type": "function"
    },
    {
      "inputs": [],
      "name": "owner",
      "outputs": [
        {
          "internalType": "address",
          "name": "",
          "type": "address"
        }
      ],
      "stateMutability": "view",
      "type": "function"
    },
    {
      "inputs": [],
      "name": "settle",
      "outputs": [],
      "stateMutability": "nonpayable",
      "type": "function"
    },
    {
      "inputs": [],
      "name": "settled",
      "outputs": [
        {
          "internalType": "bool",
          "name": "",
          "type": "bool"
        }
      ],
      "stateMutability": "view",
      "type": "function"
    },
    {
      "inputs": [],
      "name": "startTime",
      "outputs": [
        {
          "internalType": "uint256",
          "name": "",
          "type": "uint256"
        }
      ],
      "stateMutability": "view",
      "type": "function"
    },
    {
      "inputs": [],
      "name": "topBid",
      "outputs": [
        {
          "internalType": "uint256",
          "name": "",
          "type": "uint256"
        }
      ],
      "stateMutability": "view",
      "type": "function"
    },
    {
      "inputs": [],
      "name": "topBidder",
      "outputs": [
        {
          "internalType": "address",
          "name": "",
          "type": "address"
        }
      ],
      "stateMutability": "view",
      "type": "function"
    },
    {
      "inputs": [
        {
          "internalType": "address",
          "name": "newOwner",
          "type": "address"
        }
      ],
      "name": "transferOwnership",
      "outputs": [],
      "stateMutability": "nonpayable",
      "type": "function"
    },
    {
      "inputs": [],
      "name": "withdraw",
      "outputs": [],
      "stateMutability": "nonpayable",
      "type": "function"
    },
    {
      "inputs": [],
      "name": "zona",
      "outputs": [
        {
          "internalType": "address",
          "name": "",
          "type": "address"
        }
      ],
      "stateMutability": "view",
      "type": "function"
    }
  ],
  "bytecode": {
    "object": "0x60c06040526636bee158d3185860035534801561001b57600080fd5b50604051610e8b380380610e8b83398101604081905261003a916100c9565b600080546001600160a01b0319166001600160a01b03851690811782556040518592907f8be0079c531659141344cd1fd0a4f28419497f9722a3daafe3b4186f6b6457e0908290a3506001600160a01b03821660805260a08190526100a161384082610105565b6001555061012b915050565b80516001600160a01b03811681146100c457600080fd5b919050565b6000806000606084860312156100de57600080fd5b6100e7846100ad565b92506100f5602085016100ad565b9150604084015190509250925092565b6000821982111561012657634e487b7160e01b600052601160045260246000fd5b500190565b60805160a051610d266101656000396000818161028d015261050d0152600081816101d4015281816104ab01526109310152610d266000f3fe60806040526004361061010e5760003560e01c8063636bf730116100a55780638f77583911610074578063ef9089d611610059578063ef9089d614610374578063f23a6e6114610389578063f2fde38b146103cf57600080fd5b80638f775839146102dc578063bc197c81146102fb57600080fd5b8063636bf7301461025057806371845bb01461026657806378e979251461027b5780638da5cb5b146102af57600080fd5b80633ccfd60b116100e15780633ccfd60b146101ad57806344b170fe146101c257806358042958146101f65780635be1a0911461023657600080fd5b806301333f061461011357806311da60b41461016a5780631998aeef146101815780633197cbb614610189575b600080fd5b34801561011f57600080fd5b506002546101409073ffffffffffffffffffffffffffffffffffffffff1681565b60405173ffffffffffffffffffffffffffffffffffffffff90911681526020015b60405180910390f35b34801561017657600080fd5b5061017f6103ef565b005b61017f61050a565b34801561019557600080fd5b5061019f60015481565b604051908152602001610161565b3480156101b957600080fd5b5061017f610743565b3480156101ce57600080fd5b506101407f000000000000000000000000000000000000000000000000000000000000000081565b34801561020257600080fd5b50610226610211366004610a9d565b60056020526000908152604090205460ff1681565b6040519015158152602001610161565b34801561024257600080fd5b506004546102269060ff1681565b34801561025c57600080fd5b5061019f60035481565b34801561027257600080fd5b5061017f610821565b34801561028757600080fd5b5061019f7f000000000000000000000000000000000000000000000000000000000000000081565b3480156102bb57600080fd5b506000546101409073ffffffffffffffffffffffffffffffffffffffff1681565b3480156102e857600080fd5b5060045461022690610100900460ff1681565b34801561030757600080fd5b50610343610316366004610b4d565b7fbc197c810000000000000000000000000000000000000000000000000000000098975050505050505050565b6040517fffffffff000000000000000000000000000000000000000000000000000000009091168152602001610161565b34801561038057600080fd5b5061019f610960565b34801561039557600080fd5b506103436103a4366004610c08565b7ff23a6e61000000000000000000000000000000000000000000000000000000009695505050505050565b3480156103db57600080fd5b5061017f6103ea366004610a9d565b610983565b42600154106103fd57600080fd5b600454610100900460ff161561041257600080fd5b600480547fffffffffffffffffffffffffffffffffffffffffffffffffffffffffffff00ff166101001781556002546040517ff242432a000000000000000000000000000000000000000000000000000000008152309281019290925273ffffffffffffffffffffffffffffffffffffffff908116602483015261012f60448301526003606483015260a06084830152600060a48301527f0000000000000000000000000000000000000000000000000000000000000000169063f242432a9060c4015b600060405180830381600087803b1580156104f057600080fd5b505af1158015610504573d6000803e3d6000fd5b50505050565b427f0000000000000000000000000000000000000000000000000000000000000000111561053757600080fd5b426001541161054557600080fd5b61054d610960565b34101561055957600080fd5b6002805460038054337fffffffffffffffffffffffff0000000000000000000000000000000000000000841681179094553490915560009283526005602052604090922080547fffffffffffffffffffffffffffffffffffffffffffffffffffffffffffffff001660019081179091555473ffffffffffffffffffffffffffffffffffffffff909116919061012c906105f3904290610caf565b116106125761012c6001600082825461060c9190610cc6565b90915550505b73ffffffffffffffffffffffffffffffffffffffff8216156106e85760008273ffffffffffffffffffffffffffffffffffffffff168260405160006040518083038185875af1925050503d8060008114610688576040519150601f19603f3d011682016040523d82523d6000602084013e61068d565b606091505b50509050806106e6576040805173ffffffffffffffffffffffffffffffffffffffff85168152602081018490527f08148803da5497744918707293c46cccb9d74d3e52302a27354ecd9097a08b0c910160405180910390a15b505b6002546003546040805173ffffffffffffffffffffffffffffffffffffffff909316835260208301919091527f3fabff0a9c3ecd6814702e247fa9733e5d0aa69e3a38590f92cb18f623a2254d910160405180910390a15050565b60005473ffffffffffffffffffffffffffffffffffffffff1633146107c9576040517f08c379a000000000000000000000000000000000000000000000000000000000815260206004820152600c60248201527f554e415554484f52495a4544000000000000000000000000000000000000000060448201526064015b60405180910390fd5b42600154106107d757600080fd5b6000805460405173ffffffffffffffffffffffffffffffffffffffff909116914780156108fc02929091818181858888f1935050505015801561081e573d6000803e3d6000fd5b50565b60005473ffffffffffffffffffffffffffffffffffffffff1633146108a2576040517f08c379a000000000000000000000000000000000000000000000000000000000815260206004820152600c60248201527f554e415554484f52495a4544000000000000000000000000000000000000000060448201526064016107c0565b60045460ff16156108b257600080fd5b600480547fffffffffffffffffffffffffffffffffffffffffffffffffffffffffffffff001660011781556040517f156e29f6000000000000000000000000000000000000000000000000000000008152309181019190915261012f60248201526003604482015273ffffffffffffffffffffffffffffffffffffffff7f0000000000000000000000000000000000000000000000000000000000000000169063156e29f6906064016104d6565b600060146003546109719190610cde565b60035461097e9190610cc6565b905090565b60005473ffffffffffffffffffffffffffffffffffffffff163314610a04576040517f08c379a000000000000000000000000000000000000000000000000000000000815260206004820152600c60248201527f554e415554484f52495a4544000000000000000000000000000000000000000060448201526064016107c0565b600080547fffffffffffffffffffffffff00000000000000000000000000000000000000001673ffffffffffffffffffffffffffffffffffffffff83169081178255604051909133917f8be0079c531659141344cd1fd0a4f28419497f9722a3daafe3b4186f6b6457e09190a350565b803573ffffffffffffffffffffffffffffffffffffffff81168114610a9857600080fd5b919050565b600060208284031215610aaf57600080fd5b610ab882610a74565b9392505050565b60008083601f840112610ad157600080fd5b50813567ffffffffffffffff811115610ae957600080fd5b6020830191508360208260051b8501011115610b0457600080fd5b9250929050565b60008083601f840112610b1d57600080fd5b50813567ffffffffffffffff811115610b3557600080fd5b602083019150836020828501011115610b0457600080fd5b60008060008060008060008060a0898b031215610b6957600080fd5b610b7289610a74565b9750610b8060208a01610a74565b9650604089013567ffffffffffffffff80821115610b9d57600080fd5b610ba98c838d01610abf565b909850965060608b0135915080821115610bc257600080fd5b610bce8c838d01610abf565b909650945060808b0135915080821115610be757600080fd5b50610bf48b828c01610b0b565b999c989b5096995094979396929594505050565b60008060008060008060a08789031215610c2157600080fd5b610c2a87610a74565b9550610c3860208801610a74565b94506040870135935060608701359250608087013567ffffffffffffffff811115610c6257600080fd5b610c6e89828a01610b0b565b979a9699509497509295939492505050565b7f4e487b7100000000000000000000000000000000000000000000000000000000600052601160045260246000fd5b600082821015610cc157610cc1610c80565b500390565b60008219821115610cd957610cd9610c80565b500190565b600082610d14577f4e487b7100000000000000000000000000000000000000000000000000000000600052601260045260246000fd5b50049056fea164736f6c634300080f000a",
    "linkReferences": {}
  },
  "methodIdentifiers": {
    "bid()": "1998aeef",
    "bidder(address)": "58042958",
    "endTime()": "3197cbb6",
    "initalize()": "71845bb0",
    "initalized()": "5be1a091",
    "nextPrice()": "ef9089d6",
    "onERC1155BatchReceived(address,address,uint256[],uint256[],bytes)": "bc197c81",
    "onERC1155Received(address,address,uint256,uint256,bytes)": "f23a6e61",
    "owner()": "8da5cb5b",
    "settle()": "11da60b4",
    "settled()": "8f775839",
    "startTime()": "78e97925",
    "topBid()": "636bf730",
    "topBidder()": "01333f06",
    "transferOwnership(address)": "f2fde38b",
    "withdraw()": "3ccfd60b",
    "zona()": "44b170fe"
  },
  "id": 30
}