{
  "abi": [
    {
      "inputs": [
        {
          "internalType": "address",
          "name": "_fileStore",
          "type": "address"
        },
        {
          "internalType": "string",
          "name": "_baseScript",
          "type": "string"
        }
      ],
      "stateMutability": "nonpayable",
      "type": "constructor"
    },
    {
      "inputs": [],
      "name": "baseScript",
      "outputs": [
        {
          "internalType": "string",
          "name": "",
          "type": "string"
        }
      ],
      "stateMutability": "view",
      "type": "function"
    },
    {
      "inputs": [],
      "name": "p5",
      "outputs": [
        {
          "internalType": "string",
          "name": "",
          "type": "string"
        }
      ],
      "stateMutability": "view",
      "type": "function"
    },
    {
      "inputs": [
        {
          "components": [
            {
              "internalType": "string",
              "name": "seed",
              "type": "string"
            },
            {
              "internalType": "string",
              "name": "bg",
              "type": "string"
            },
            {
              "internalType": "string",
              "name": "fg1",
              "type": "string"
            },
            {
              "internalType": "string",
              "name": "fg2",
              "type": "string"
            },
            {
              "internalType": "string",
              "name": "matrix",
              "type": "string"
            },
            {
              "internalType": "string",
              "name": "activation",
              "type": "string"
            },
            {
              "internalType": "string",
              "name": "rand",
              "type": "string"
            },
            {
              "internalType": "string",
              "name": "mods",
              "type": "string"
            }
          ],
          "internalType": "struct NCAParams",
          "name": "_params",
          "type": "tuple"
        }
      ],
      "name": "page",
      "outputs": [
        {
          "internalType": "string",
          "name": "",
          "type": "string"
        }
      ],
      "stateMutability": "view",
      "type": "function"
    },
    {
      "inputs": [
        {
          "components": [
            {
              "internalType": "string",
              "name": "seed",
              "type": "string"
            },
            {
              "internalType": "string",
              "name": "bg",
              "type": "string"
            },
            {
              "internalType": "string",
              "name": "fg1",
              "type": "string"
            },
            {
              "internalType": "string",
              "name": "fg2",
              "type": "string"
            },
            {
              "internalType": "string",
              "name": "matrix",
              "type": "string"
            },
            {
              "internalType": "string",
              "name": "activation",
              "type": "string"
            },
            {
              "internalType": "string",
              "name": "rand",
              "type": "string"
            },
            {
              "internalType": "string",
              "name": "mods",
              "type": "string"
            }
          ],
          "internalType": "struct NCAParams",
          "name": "_params",
          "type": "tuple"
        }
      ],
      "name": "parameters",
      "outputs": [
        {
          "internalType": "string",
          "name": "",
          "type": "string"
        }
      ],
      "stateMutability": "pure",
      "type": "function"
    },
    {
      "inputs": [
        {
          "components": [
            {
              "internalType": "string",
              "name": "seed",
              "type": "string"
            },
            {
              "internalType": "string",
              "name": "bg",
              "type": "string"
            },
            {
              "internalType": "string",
              "name": "fg1",
              "type": "string"
            },
            {
              "internalType": "string",
              "name": "fg2",
              "type": "string"
            },
            {
              "internalType": "string",
              "name": "matrix",
              "type": "string"
            },
            {
              "internalType": "string",
              "name": "activation",
              "type": "string"
            },
            {
              "internalType": "string",
              "name": "rand",
              "type": "string"
            },
            {
              "internalType": "string",
              "name": "mods",
              "type": "string"
            }
          ],
          "internalType": "struct NCAParams",
          "name": "_params",
          "type": "tuple"
        }
      ],
      "name": "script",
      "outputs": [
        {
          "internalType": "string",
          "name": "",
          "type": "string"
        }
      ],
      "stateMutability": "view",
      "type": "function"
    }
  ],
  "bytecode": {
    "object": "0x60806040523480156200001157600080fd5b506040516200141d3803806200141d83398101604081905262000034916200007c565b600080546001600160a01b0319166001600160a01b03841617905560016200005d82826200020b565b505050620002d7565b634e487b7160e01b600052604160045260246000fd5b600080604083850312156200009057600080fd5b82516001600160a01b0381168114620000a857600080fd5b602084810151919350906001600160401b0380821115620000c857600080fd5b818601915086601f830112620000dd57600080fd5b815181811115620000f257620000f262000066565b604051601f8201601f19908116603f011681019083821181831017156200011d576200011d62000066565b8160405282815289868487010111156200013657600080fd5b600093505b828410156200015a57848401860151818501870152928501926200013b565b828411156200016c5760008684830101525b8096505050505050509250929050565b600181811c908216806200019157607f821691505b602082108103620001b257634e487b7160e01b600052602260045260246000fd5b50919050565b601f8211156200020657600081815260208120601f850160051c81016020861015620001e15750805b601f850160051c820191505b818110156200020257828155600101620001ed565b5050505b505050565b81516001600160401b0381111562000227576200022762000066565b6200023f816200023884546200017c565b84620001b8565b602080601f8311600181146200027757600084156200025e5750858301515b600019600386901b1c1916600185901b17855562000202565b600085815260208120601f198616915b82811015620002a85788860151825594840194600190910190840162000287565b5085821015620002c75787850151600019600388901b60f8161c191681555b5050505050600190811b01905550565b61113680620002e76000396000f3fe608060405234801561001057600080fd5b50600436106100675760003560e01c806365e433b91161005057806365e433b9146100925780637ba4965b146100a5578063f238168c146100b857600080fd5b8063337055261461006c57806341e0652e1461008a575b600080fd5b6100746100cb565b6040516100819190610652565b60405180910390f35b610074610265565b6100746100a03660046107d3565b6102f3565b6100746100b33660046107d3565b61041f565b6100746100c63660046107d3565b610536565b6000546040517fe0876aa800000000000000000000000000000000000000000000000000000000815260206004820152601360248201527f70352d76312e352e302e6d696e2e6a732e677a0000000000000000000000000060448201526060916101ba9173ffffffffffffffffffffffffffffffffffffffff9091169063e0876aa8906064015b600060405180830381865afa15801561016f573d6000803e3d6000fd5b505050506040513d6000823e601f3d9081017fffffffffffffffffffffffffffffffffffffffffffffffffffffffffffffffe01682016040526101b5919081019061093d565b610571565b6000546040517fe0876aa800000000000000000000000000000000000000000000000000000000815260206004820152601660248201527f67756e7a6970536372697074732d302e302e312e6a730000000000000000000060448201526102409173ffffffffffffffffffffffffffffffffffffffff169063e0876aa890606401610152565b604051602001610251929190610a81565b604051602081830303815290604052905090565b6001805461027290610ba5565b80601f016020809104026020016040519081016040528092919081815260200182805461029e90610ba5565b80156102eb5780601f106102c0576101008083540402835291602001916102eb565b820191906000526020600020905b8154815290600101906020018083116102ce57829003601f168201915b505050505081565b606073__$44e65ce1626a4fb10403dde4233e47d3e6$__6312496a1b61031884610536565b60e08501516040516103309291600191602001610bf8565b604080517fffffffffffffffffffffffffffffffffffffffffffffffffffffffffffffffe08184030181529082905261036b91602001610cee565b6040516020818303038152906040526040518263ffffffff1660e01b81526004016103969190610652565b600060405180830381865af41580156103b3573d6000803e3d6000fd5b505050506040513d6000823e601f3d9081017fffffffffffffffffffffffffffffffffffffffffffffffffffffffffffffffe01682016040526103f99190810190610d0a565b6040516020016104099190610d81565b6040516020818303038152906040529050919050565b606073__$44e65ce1626a4fb10403dde4233e47d3e6$__6312496a1b6104436100cb565b61044c856102f3565b60405160200161045d929190610e10565b604080517fffffffffffffffffffffffffffffffffffffffffffffffffffffffffffffffe08184030181529082905261049891602001610cee565b6040516020818303038152906040526040518263ffffffff1660e01b81526004016104c39190610652565b600060405180830381865af41580156104e0573d6000803e3d6000fd5b505050506040513d6000823e601f3d9081017fffffffffffffffffffffffffffffffffffffffffffffffffffffffffffffffe01682016040526105269190810190610d0a565b6040516020016104099190610f2d565b6060816000015182602001518360400151846060015185608001518660a001518760c001516040516020016104099796959493929190610f72565b60208082015180516040519260008080805b858110156105b957602081026020018701519250602083015191506001823b039350836001868a01843c93830193600101610583565b50505050602081038452601f19601f8201168401604052505050919050565b60005b838110156105f35781810151838201526020016105db565b83811115610602576000848401525b50505050565b600081518084526106208160208601602086016105d8565b601f017fffffffffffffffffffffffffffffffffffffffffffffffffffffffffffffffe0169290920160200192915050565b6020815260006106656020830184610608565b9392505050565b7f4e487b7100000000000000000000000000000000000000000000000000000000600052604160045260246000fd5b604051610100810167ffffffffffffffff811182821017156106bf576106bf61066c565b60405290565b6040805190810167ffffffffffffffff811182821017156106bf576106bf61066c565b604051601f82017fffffffffffffffffffffffffffffffffffffffffffffffffffffffffffffffe016810167ffffffffffffffff8111828210171561072f5761072f61066c565b604052919050565b600067ffffffffffffffff8211156107515761075161066c565b50601f017fffffffffffffffffffffffffffffffffffffffffffffffffffffffffffffffe01660200190565b600082601f83011261078e57600080fd5b81356107a161079c82610737565b6106e8565b8181528460208386010111156107b657600080fd5b816020850160208301376000918101602001919091529392505050565b6000602082840312156107e557600080fd5b813567ffffffffffffffff808211156107fd57600080fd5b90830190610100828603121561081257600080fd5b61081a61069b565b82358281111561082957600080fd5b6108358782860161077d565b82525060208301358281111561084a57600080fd5b6108568782860161077d565b60208301525060408301358281111561086e57600080fd5b61087a8782860161077d565b60408301525060608301358281111561089257600080fd5b61089e8782860161077d565b6060830152506080830135828111156108b657600080fd5b6108c28782860161077d565b60808301525060a0830135828111156108da57600080fd5b6108e68782860161077d565b60a08301525060c0830135828111156108fe57600080fd5b61090a8782860161077d565b60c08301525060e08301358281111561092257600080fd5b61092e8782860161077d565b60e08301525095945050505050565b6000602080838503121561095057600080fd5b825167ffffffffffffffff8082111561096857600080fd5b8185019150604080838803121561097e57600080fd5b6109866106c5565b83518152848401518381111561099b57600080fd5b80850194505087601f8501126109b057600080fd5b8351838111156109c2576109c261066c565b6109d0868260051b016106e8565b818152868101945060069190911b8501860190898211156109f057600080fd5b948601945b81861015610a535783868b031215610a0d5760008081fd5b610a156106c5565b865181528787015173ffffffffffffffffffffffffffffffffffffffff81168114610a405760008081fd5b81890152855294830194938601936109f5565b95820195909552979650505050505050565b60008151610a778185602086016105d8565b9290920192915050565b7f3c73637269707420747970653d22746578742f6a6176617363726970742b677a81527f697022207372633d22646174613a746578742f6a6176617363726970743b626160208201527f736536342c000000000000000000000000000000000000000000000000000000604082015260008351610b058160458501602088016105d8565b7f223e3c2f7363726970743e00000000000000000000000000000000000000000060459184019182018190527f3c736372697074207372633d22646174613a746578742f6a617661736372697060508301527f743b6261736536342c000000000000000000000000000000000000000000000060708301526079820191508451610b938184602089016105d8565b91909101908152600b01949350505050565b600181811c90821680610bb957607f821691505b602082108103610bf2577f4e487b7100000000000000000000000000000000000000000000000000000000600052602260045260246000fd5b50919050565b600084516020610c0b8285838a016105d8565b855491840191600090600181811c9080831680610c2957607f831692505b8583108103610c5f577f4e487b710000000000000000000000000000000000000000000000000000000085526022600452602485fd5b808015610c735760018114610ca657610cd3565b7fffffffffffffffffffffffffffffffffffffffffffffffffffffffffffffff0085168852831515840288019550610cd3565b60008c81526020902060005b85811015610ccb5781548a820152908401908801610cb2565b505083880195505b5050505050610ce28187610a65565b98975050505050505050565b60008251610d008184602087016105d8565b9190910192915050565b600060208284031215610d1c57600080fd5b815167ffffffffffffffff811115610d3357600080fd5b8201601f81018413610d4457600080fd5b8051610d5261079c82610737565b818152856020838501011115610d6757600080fd5b610d788260208301602086016105d8565b95945050505050565b7f3c736372697074207372633d22646174613a746578742f6a617661736372697081527f743b6261736536342c000000000000000000000000000000000000000000000060208201526000602982018351610de08183602088016105d8565b7f223e3c2f7363726970743e0000000000000000000000000000000000000000009101908152600b019392505050565b7f3c21444f43545950452068746d6c3e3c68746d6c207374796c653d226865696781527f68743a20313030253b223e3c626f6479207374796c653d226d617267696e3a2060208201527f303b646973706c61793a20666c65783b6a7573746966792d636f6e74656e743a60408201527f2063656e7465723b616c69676e2d6974656d733a2063656e7465723b6865696760608201527f68743a20313030253b223e000000000000000000000000000000000000000000608082015260008351610ee081608b8501602088016105d8565b835190830190610ef781608b8401602088016105d8565b7f3c2f626f64793e3c2f68746d6c3e000000000000000000000000000000000000608b9290910191820152609901949350505050565b7f646174613a746578742f68746d6c3b6261736536342c00000000000000000000815260008251610f658160168501602087016105d8565b9190910160160192915050565b7f6c65742073656564203d20000000000000000000000000000000000000000000815260008851610faa81600b850160208d016105d8565b7f3b206c6574206267203d20000000000000000000000000000000000000000000600b918401918201528851610fe7816016840160208d016105d8565b7f3b206c657420666731203d200000000000000000000000000000000000000000601692909101918201528751611025816022840160208c016105d8565b01611052602282017f3b206c657420666732203d2000000000000000000000000000000000000000009052565b61105f602e820188610a65565b7f3b206c6574206d6174726978203d20000000000000000000000000000000000081529050611091600f820187610a65565b7f3b66756e6374696f6e2061637469766174696f6e2878297b0000000000000000815290506110c36018820186610a65565b7f7d2066756e6374696f6e2072616e642829207b00000000000000000000000000815290506110f56013820185610a65565b7f7d0000000000000000000000000000000000000000000000000000000000000081526001019a995050505050505050505056fea164736f6c634300080f000a",
    "linkReferences": {
      "src/utils/Base64.sol": {
        "Base64": [
          {
            "start": 1502,
            "length": 20
          },
          {
            "start": 1802,
            "length": 20
          }
        ]
      }
    }
  },
  "methodIdentifiers": {
    "baseScript()": "41e0652e",
    "p5()": "33705526",
    "page((string,string,string,string,string,string,string,string))": "7ba4965b",
    "parameters((string,string,string,string,string,string,string,string))": "f238168c",
    "script((string,string,string,string,string,string,string,string))": "65e433b9"
  },
  "id": 23
}